:020000040800F2
:1000000058050020D5000008751C00085518000888
:1000100000000000000000000000000000000000E0
:10002000000000000000000000000000311D00087A
:100030000000000000000000BD1C0008331D000887
:10004000E7000008E7000008E7000008E7000008F4
:10005000E7000008E7000008E7000008E7000008E4
:10006000E7000008E7000008E5010008E7000008D5
:10007000E7000008E7000008E7000008E7000008C4
:10008000E7000008E7000008E700000800000000A3
:10009000E7000008E7000008E7000008E7000008A4
:1000A000E7000008E7000008E7000008E700000894
:1000B000E7000008E7000008E7000008E700000884
:1000C0000348854600F07CF8004800477D2700087B
:1000D000580500200448804704480047FEE7FEE733
:1000E000FEE7FEE7FEE7FEE7D91D0008C1000008B5
:1000F00030B50B46014600202022012409E00D46C0
:10010000D5409D4205D31D469540491B2546954047
:1001100040191546521E002DF1DC30BDF0B51FB45C
:100120000646002082B005464024019100901BE065
:10013000019922460F46304600F030F8049A059B9C
:10014000801A994110D310461946224600F016F83D
:10015000361A8F410197224601200021009F00F0AE
:100160000DF838184D4100902046641E0028DFDC51
:10017000019B00982946324607B0F0BD10B5202AF1
:1001800004DB0146203A9140002010BD914020231D
:100190009C1A0346E3401943904010BD10B5202A35
:1001A00004DB0846203AD040002110BD0B46D34066
:1001B000D0402024A21A91400843194610BD0000E7
:1001C000064C0125064E05E0E36807CC2B430C3CAA
:1001D00098471034B442F7D3FFF776FF1829000888
:1001E0003829000810B5034800F008F8024800F06C
:1001F00005F810BDA400002064000020F8B50446F6
:100200009D4801689C4A9C4E9B4F0832206813040D
:100210001C363037904201D108221EE0B04201D195
:1002200080221AE0B84202D10122D20215E0924A9D
:100230004432904202D10122D2030EE08E4A58325B
:10024000904201D11A4608E08B4A6C32904202D1AA
:100250000122D20501E00122D206254611402035B7
:1002600000293BD00168090738D50168082291436D
:100270000160814920680831884201D108201EE0D0
:10028000B04201D180201AE0B84202D10120C00260
:1002900015E079494431884202D10120C0030EE0C3
:1002A00075495831884201D1184608E072496C31CD
:1002B000884202D10120C00501E00120C0066E493C
:1002C0004860E06B01210843E0630420687100206E
:1002D0002871616B002901D0204688476648016873
:1002E000654A206808321315904201D104221EE0AD
:1002F000B04201D140221AE0B84201D11A4616E0BC
:100300005D4A4432904202D1012292030FE05A4AE0
:100310005832904202D10122920408E0564A6C32CF
:10032000904202D10122920501E00122920611427F
:1003300038D00168490735D50168890603D40268B9
:1003400004218A4302604C4920680831884201D167
:1003500004201EE0B04201D140201AE0B84201D191
:10036000184616E044494431884202D101208003F6
:100370000FE041495831884202D10120800408E051
:100380003D496C31884202D10120800501E0012005
:1003900080063949486005206871216B002901D029
:1003A0002046884734480168334A2068083253158C
:1003B000904201D102221EE0B04201D120221AE077
:1003C000B84201D11A4616E02B4A4432904202D17B
:1003D000012252030FE0284A5832904202D10122F2
:1003E000520408E0244A6C32904202D101225205A4
:1003F00001E00122520611423CD00168890739D53B
:100400000168890603D401680222914301601A49F8
:1004100020680831884201D102201EE0B04201D19B
:1004200020201AE0B84201D1184616E012494431A2
:10043000884202D1012040030FE00F495831884221
:1004400002D10120400408E00B496C31884202D1FE
:100450000120400501E00120400607494860E06BAB
:10046000E0630120687100202871E16A002901D051
:1004700020468847F8BD00000000024070B5002803
:1004800005D0034620335979002902D003E001202A
:1004900070BD002119710221597104682268374921
:1004A000C5680A408168466929430569354329437F
:1004B00085692943C5692943056A29431143216098
:1004C0002F492F4C02687831A24206D18A6A12095C
:1004D00012018A628A6A406849E0294C1434A242B7
:1004E00007D18A6AF024A2438A628A6A40680001BE
:1004F0003DE0234C2834A24208D18A6A0F2424020A
:10050000A2438A628A6A4068000230E01C4C3C3494
:10051000A24208D18A6A0F242403A2438A628A6A0B
:100520004068000323E0164C5034A24208D18A6A86
:100530000F242404A2438A628A6A8088000416E099
:100540000F4C6434A24208D18A6A0F242405A243C6
:100550008A628A6A8088000509E08A4209D18A6A2B
:100560000F242406A2438A628A6A007900060243A5
:100570008A6201205871002070BD00000FC0FFFF8B
:100580000800024031B500F0CBF8044600F0C8F88E
:100590000099001B8842F9D338BD0000F8B500234C
:1005A0000124A7E027469F403A4070D04D68022DB5
:1005B00001D0122D14D1DD08AD002D1800952D6A43
:1005C0005E07AC46F50E0F26AE46AE406546B54317
:1005D000AC460E697546AE4065462E43009D2E62C0
:1005E0004D68012D05D0022D03D0112D01D0122D03
:1005F00016D185680326AC465D00AE46AE40654622
:10060000B543AC46CE687546AE4065462E4386601F
:1006100046680D79BE43ED06ED0F9D4035434560BC
:1006200006685F000325BD40AE46AE430D79B44673
:10063000AE07B60FBE4065462E430660C6687546D7
:10064000AE438D68BD403543C5604D68ED0050D563
:100650002B4D6E6B26436E639E082A4DB6007519AE
:10066000AC46AD689E07360F0F27B740BD43052740
:100670003F07B84201D100271AE0234FB84201D109
:10068000012715E0214FB84202D1022710E030E0E7
:100690001F4FB84201D103270AE01E4FB84201D1D3
:1006A000042705E01C4FB84201D1052700E00627CA
:1006B000B7402F436546AF60184D2E684F6896438C
:1006C000FF0300D516432E606E684F689643BF0344
:1006D00000D516436E60AE684F689643FF0200D5A2
:1006E0001643AE60EE684F689643BF0200D51643CE
:1006F000EE605B1C0A681546DD4000D052E7F8BD8D
:1007000000100240000001400004005000080050AA
:10071000000C005000100050001C0050000401406C
:1007200001480068704700000C00002070B50246C8
:1007300040325378202B1CD11378012B19D0012380
:10074000137024245470046825689D432560046850
:1007500025681E03B5432560046825680D432560A0
:10076000006801681943016020205070002010705B
:1007700070BD022070BD70B5024640325378202B08
:100780001BD11378012B18D001241470242353702B
:1007900003681D68A5431D6005682B680F26360297
:1007A000B3430902194329600068016821430160CD
:1007B000202050700020107070BD022070BD00001D
:1007C00070B5040006D0254640356878002600281C
:1007D00002D005E0012070BD2E70204600F0A2F985
:1007E00024206870206801684908490001600F21D1
:1007F0006068090688432168086121688A680120C9
:10080000C00382438A60E1680129A16808D02122DF
:100810009202114322689160E168022902D005E04A
:100820000143F7E701212268C902516021684A6843
:100830000F4B1A434A602168CA688243CA606169E3
:1008400020690843A169090208432168C860216A38
:10085000E0690843216808602068016801221143AB
:1008600001606664202068702663AE70002070BD51
:1008700000800002FFB5054604464035687883B025
:10088000202872D10C98002870D00D9800286DD0C7
:100890002878012869D001202870FFF741FF07461A
:1008A000012200901923D103204601F09FF800286F
:1008B00075D1222068704020A870002666640C98CC
:1008C00060620D98608566630E980090019704A998
:1008D0000EC9204601F00AF8002804D0606C2E7082
:1008E00004285FD05BE0618D3748FF2905D9FF22DE
:1008F000228501231B06009006E0618D2185009072
:10090000208D0123C2B25B062046049901F05AF8FB
:1009100000970022042120460E9B01F067F8002872
:100920003DD12068416A606A421C62620170208D7C
:10093000401E81B22185608D401E6085002921D135
:10094000608D00281ED000970022802120460E9B3B
:1009500001F04CF8002822D1608DFF2807D9FF2232
:10096000228501231B06009608E02AE01AE0608D2C
:1009700020850096208D0123C2B25B062046049993
:1009800001F020F8608D0028C2D13A4620460E9929
:1009900001F050F8002807D0606C042802D0032032
:1009A00007B0F0BD0120FBE721682020C861216865
:1009B0004A68064B1A404A606870AE702E7000207C
:1009C000EEE70220ECE700000024008000E800FED3
:1009D000FFB5054604464035687883B0202876D1B7
:1009E0000C98002874D00D98002871D02878012820
:1009F0006DD001202870FFF793FE0746012200907A
:100A00001923D103204600F0F1FF002853D1212003
:100A100068704020A870002666640C9860620D988B
:100A2000608566630E980090019704A90EC9204660
:100A300000F092FF002804D0606C2E7004286AD069
:100A400039E0608DFF2805D9FF22228501231B068E
:100A5000009606E0608D20850096208D0123C2B2AD
:100A60005B062046049900F0ADFF3A4620460E99F9
:100A700001F007F8002803D0606C04284BD01AE07E
:100A8000606A411C6162216800788862608D401E46
:100A90006085208D401E0004000C208524D1608DCF
:100AA000002821D000970022802120460E9B00F0D4
:100AB0009DFF002802D0032007B0F0BD608DFF2805
:100AC00007D9FF22228501231B06009608E024E0B7
:100AD00021E0608D20850096208D0123C2B25B0647
:100AE0002046049900F06EFF608D0028BDD13A4683
:100AF00020460E9900F09EFF0028BDD120682021DD
:100B0000C16120684268064B1A4042606970AE704D
:100B10002E700020D0E70120CEE70220CCE70000B5
:100B200000E800FEF0B506460068274985B0884217
:100B300047D1032040020090122001900120029032
:100B40000320039006240520694604940007FFF75C
:100B500025FD1E48816B01225205114381631C480B
:100B60001C4D802711C500242C606C60EC602C614A
:100B70006C61AF60AC611748083DFFF77FFC00284F
:100B800003D07D2114A001F030FBF563AE62114D5E
:100B90000F48403514382860062068602946102028
:100BA000083191C16C61AC61EC6128462C62FFF7A1
:100BB00065FC002803D08E2107A001F016FBB56369
:100BC000AE6205B0F0BD00000054004000100240CD
:100BD00030000240640000202E2E2F5372632F69D4
:100BE00032632E630000000002480168491C016066
:100BF000704700000C00002010B506480168402234
:100C000011430160002000F007F800F019F80020FF
:100C100010BD00000020024010B5044607487D21A9
:100C2000C9000068FFF764FA00F03CFD002221468D
:100C3000501E00F02BF8002010BD00001000002016
:100C400010B50C48416B012211434163816B0204D2
:100C50001143816300221146501F00F017F8002253
:100C60001146901E00F012F800221146501E00F0AE
:100C70000DF810BD00100240C106C90E01208840C9
:100C8000014908607047000000E100E010B500F085
:100C9000F3FF10BDF8B5684C074601210020C903D9
:100CA000644E654A4034102F73D011DC012F75D08B
:100CB000022F70D0042F6FD0082F21D1E1680323B9
:100CC0001B03194069D0BC026310A1427AD09EE098
:100CD00003255A4B2D04202F08D0402F32D0FF3F40
:100CE0007F1E6BD007263602B74209D126692469D8
:100CF00001272C403F04BC4203D1B2055AE008460C
:100D0000F8BD012149048C4203D1B107F8D54C4804
:100D1000F8BDAC42FCD111688903F9D510680321F4
:100D20000905084001210905401A09D0401A05D0DB
:100D3000884201D14348F8BD1846F8BD4248F8BD85
:100D40004248F8BDE1680124A406214006D0A14232
:100D5000F7D191688907F4D53D48F8BD116889013C
:100D6000FBD5D068D16880023A4C000F245C0802A1
:100D7000810FD068491CC00306D41068C00601D595
:100D8000184602E0304600E033486043FFF7B0F910
:100D9000F8BD3FE002E01DE02AE026E0E3689B07A3
:100DA0009B0F0CD0022B0DD0012B10D0032BEFD1B9
:100DB00022699205002AA2DBEAE703E02EE000F0B8
:100DC000EDF9E5E711684907E2D53046E0E700F0C4
:100DD000F5F9DDE7E3680C252B4006D0082BF1D0B0
:100DE000042BF4D00C2BE3D0D2E700F0C7F9CFE707
:100DF000E3680325AD022B40F7D00127FF02BB4279
:100E0000E0D07A109342E2D0AB42D1D0C0E7994211
:100E1000DDD0BDE7916B4902E7D4B9E7E16829402D
:100E2000E3D001235B049942CCD05A109142CED03A
:100E3000AEE700000024F4000010024000093D006D
:100E40008890000020A1070040420F0080841E000F
:100E5000006CDC020429000800127A00F8B5044690
:100E60000068664D810601D400057DD5634E0027DC
:100E7000403EB06BC00004D4B06B31040843B06393
:100E800001275F480168C90511D401688215114323
:100E90000160FFF745FC009005E0FFF741FC009979
:100EA000401A642844D856480068C005F5D5316812
:100EB00003200005626801401040884205D10323E9
:100EC000A0681B051840884208D09003800F0328B3
:100ED00004D13068800301D50120F8BD28690321C1
:100EE0000904084029D00A40824202D022789206A2
:100EF00006D4A2680A4082421FD0208800051CD573
:100F000028692A6988430121C9040A432A612A6998
:100F10008A432A612861C0050FD5FFF701FC0090C4
:100F200008E0FFF7FDFB0099411A3648814201D9DC
:100F30000320F8BD28698005F3D561688803800F18
:100F4000032805D132680005824301400A4332601C
:100F50002869032261681204114008432861002FA8
:100F600006D0B06B012100E002E009078843B063BE
:100F70002078C00705D0E868E16880088000084351
:100F8000E8602078800705D5E8680C21884321694E
:100F90000843E8602078400706D5E8680321890205
:100FA000884361690843E8602078000706D5E8684F
:100FB000032109038843A1690843E8602088C0052C
:100FC00006D5E868032109048843E1690843E8601D
:100FD0002078400606D5E868012189068843616AC1
:100FE0000843E8602078000606D5E86803218904F4
:100FF0008843216A0843E8600020F8BD40100240A1
:101000000070004088130000F8B5054653480E46AE
:101010000068C007C00FB0420AD2504801684908B2
:101020004900314301600068C007C00FB0426FD172
:1010300028784B4C800705D5E068F0218843A968E3
:101040000843E0602878C00752D06868022817D0AB
:10105000032818D02168012818D08905002957DAFB
:10106000E168890889000143E160FFF759FB69687D
:101070000746022912D003291CD0012926D033E0CB
:1010800021688903EAE721688901E7E74907E5E77D
:10109000FFF746FBC11B3348814223D8E0680007B5
:1010A000800F0228F4D123E0FFF73AFBC11B2D4843
:1010B000814217D8E0680007800F0328F4D117E0B9
:1010C000FFF72EFBC11B274881420BD8E0680007C1
:1010D000800F0128F4D10BE0FFF722FBC11B214850
:1010E000814201D90320F8BDE0680007800FF3D1E9
:1010F0001A480168C907C90FB1420BD901684908EC
:101100004900314301600068C007C00FB04201D000
:101110000120F8BD2878400706D5E06807210902BC
:101120008843E9680843E0602878000707D5E0684D
:101130000721C90288432969C9000843E06000F01B
:101140003DF8E168084A0906090F515CC8400749A3
:1011500008600020FFF760FD0020F8BD002002407D
:101160000010024088130000F4280008100000203E
:10117000014800687047000010000020044805493D
:101180000068C968044A4905490F515CC840704766
:1011900010000020001002400D29000804480549F5
:1011A0000068C968044A8904490F515CC840704707
:1011B00010000020001002400D29000810B5184A48
:1011C000D1680C20084004280BD0082810D00C2827
:1011D00010D050680004410F0120C003491C884012
:1011E00010BD1068C00601D50E4810BD0E4810BDD8
:1011F0000E4810BD88020E4B000F185C0902D36820
:10120000890F491CDB0301D5084A05E01268D206A4
:1012100001D5044A00E0044A5043FEF769FF10BDBF
:101220000010024000093D000024F40000127A0082
:1012300004290008F8B504460078FE4DC0074AD0DE
:10124000E8680007800F022807D0E8680007800FD1
:10125000032809D1E868C00306D5286880033AD579
:101260006068002873D036E0012062680004824282
:1012700003D129680143296011E0052301211B04E2
:1012800089049A422A6802D10A432A60F1E782431C
:101290002A602A68024000922868884328606068B3
:1012A00000280CD0FFF73CFA064604E0FFF738FAB6
:1012B000801B64287ED828688003F7D50BE0FFF7F1
:1012C0002FFA064604E0FFF72BFA801B6428F1D8BA
:1012D00028688003F7D42078800741D5E8681F2765
:1012E0000007800F3F02012807D0E8680007800F41
:1012F000032809D1E868C00306D42868400717D539
:10130000E068012823D113E0E068002817D029689D
:101310000922914301432960FFF702FA064604E0DF
:10132000FFF7FEF9801B0228C4D828684007F7D5CC
:1013300068682169B84309020843686010E02868BA
:10134000400840002860FFF7EBF9064605E095E00D
:10135000FFF7E6F9801B0228ACD828684007F7D4CD
:101360002078C00672D5E868B34E0007800F0AD017
:10137000E06900282868B1495AD008432860FFF77F
:10138000CFF9074644E02868800502D5E0690028C7
:1013900074D0606A69683140884212D900F090FCCC
:1013A0000028AFD16868616AB04308436860686824
:1013B000000200E0DCE0218C000A090608436860B6
:1013C0000FE06968B143014369606868218C0002DD
:1013D000000A090608436860606A00F071FC002892
:1013E00090D1606A410B0120C003491C8840E96824
:1013F00009060A0F9249895CC8409249086000209A
:10140000FFF70AFC22E0FFF78BF9C01B02288BD8FC
:1014100028688005F7D56868616AB043084368604A
:101420006868218C0002000A0906084368600DE024
:1014300088432860FFF774F9064604E0FFF770F967
:10144000801B022888D828688005F7D420787E4E33
:10145000000723D560690028306910D001210843B6
:101460003061FFF75DF9074604E0FFF759F9C01B4B
:1014700002287DD830698007F7D50FE001E14008E8
:1014800040003061FFF74CF9074604E0FFF748F9E8
:10149000C01B02286CD830698007F7D42078400739
:1014A00060D5A86B0027C00005D4A86B01210907EF
:1014B0000843A863012765480168C90511D401687C
:1014C000821511430160FFF72BF9009005E0FFF74B
:1014D00027F90099401A64284AD85C480068C0057A
:1014E000F5D55648A268824203D131690143316182
:1014F00011E001218902002A07D005231B029A422C
:1015000003D132690A433261EFE7326982433261C3
:10151000306988433061A06800280ED0FFF700F9D9
:10152000009006E0FFF7FCF80099411A4848814214
:101530001ED830698005F5D50DE0FFF7F1F8009071
:1015400006E0FFF7EDF80099411A414881420FD8B3
:1015500030698005F5D4002F04D0A96B0120000765
:101560008143A9632078800630D53A48421400E0D0
:1015700080E0A169002916D0AB6801210B43AB6064
:101580006B6B0B436B63016A11430162FFF7C8F891
:10159000064604E0FFF7C4F8801B02286AD8A86852
:1015A0008007F7D512E0A96849084900A960016AD7
:1015B00091430162FFF7B4F8064604E0FFF7B0F884
:1015C000801B022856D8A8688007F7D4A06A002894
:1015D00055D0E9680907890F032952D0012636063C
:1015E0000228286805D0B0432860FFF799F8044620
:1015F00042E0B0432860FFF793F8074604E0FFF7A6
:101600008FF8C01B022835D828688001F7D4216BD9
:10161000E06AEA680843616BFD231B049A431143A7
:101620000843E860286830432860FFF779F80446EB
:1016300017E000000010024000E000000001000080
:10164000F428000810000020401002400070004004
:101650008813000000000140FFF762F8001B022819
:1016600008D828688001F7D509E0FFF759F8001B72
:10167000022801D90320F8BD28688001F5D4002094
:10168000F8BD0120F8BD00000422044904280869BF
:1016900002D09043086170471043FBE700E000E090
:1016A00070470000094910B5401E884201D9012049
:1016B00010BD074C60610321081F00F0DDFA002017
:1016C000A06107202061002010BD0000FFFFFF0087
:1016D00000E000E010B5FFF7E3FF10BD70B50400B7
:1016E00005D025466035687A002802D006E0012042
:1016F00070BD00202872204600F026F82420687271
:1017000020680168490849000160606A002802D029
:10171000204600F08BFB204600F01EFC0128E7D09D
:10172000206841680922D2029143416020688168A3
:101730002A229143816020680168012211430160DF
:10174000204600F0D9FB70BD00B500680D4985B09A
:10175000884214D10C48816B0122520411438163E9
:101760000C200090022001900020029003200390A2
:1017700004200490052069460007FEF70FFF05B01E
:1017800000BD00000044004000100240FFB50646C6
:1017900004466036707A83B00D46202858D1002D5B
:1017A0000CD00598002809D00120A16800038142CF
:1017B00007D12069002804D1E80702D0012007B032
:1017C000F0BD307A012843D0012030720020E0665D
:1017D00021207072FEF7A4FF01902746403705983C
:1017E00038820598788218E0788A401E78820698B8
:1017F0000090002280212046019B00F0C5FC0028BB
:1018000018D10120A1680003814202D1206900287B
:1018100012D02168287888626D1C788A0028E3D16C
:1018200006980090002240212046019B00F0ACFC6D
:10183000002808D00320C2E728882168C005C00D11
:101840008862AD1CE9E72020707200203072B6E794
:101850000220B4E7FEE701688A69D243920701D407
:1018600000228A6200688169C943C90703D081697F
:101870000122114381617047F7B5044600680E46A6
:101880008069C043C0062CD42027254640352068F7
:101890008069C04380060FD5701CF8D0002E05D09B
:1018A000FEF73EFF0299401AB042F0D96F70002057
:1018B000A87028700320FEBD21681020C861206830
:1018C000C7612046FFF7C7FF20684168064A1140FC
:1018D0004160042060646F700020A87028700120AF
:1018E000FEBD0020FEBD000000E800FEF8B5044685
:1018F000164618481D46DAB20090079F002320467E
:1019000000F060F83A462046069900F0BAF8002840
:1019100003D0606C04281BD018E02846F5B20128DB
:1019200009D02168300A88623A462046069900F0BC
:10193000A8F80028EDD12068856200970022402198
:101940002046069B00F052F8002800D00320F8BD86
:101950000120F8BD00200080F8B50446164618485E
:101960001D46DAB2C3020090079F204600F02AF815
:101970003A462046069900F084F8002803D0606CAF
:1019800004281BD018E02846F5B2012809D02168A8
:10199000300A88623A462046069900F072F800281C
:1019A000EDD1206885620097002280212046069BA9
:1019B00000F01CF8002800D00320F8BD0120F8BD7D
:1019C00000200080F0B50668059C7568064F600D24
:1019D000384385438805800D11040843184320438C
:1019E00005437560F0BD0000FF63FF03F8B51C46BA
:1019F00017460E46054611E0601C0FD0002C05D09E
:101A0000FEF78EFE0699401AA04207D920204035E5
:101A100068700020A87028700320F8BD28688169CC
:101A20003046884304D00020B842E5D00020F8BDFD
:101A30000120F9E770B516460D4604461AE0324615
:101A400029462046FFF718FF002801D0012070BD6D
:101A5000002D04D0FEF764FE801BA8420AD9616CF9
:101A6000202001436164403460700020A070207029
:101A7000032070BD20688069C0438006DFD4002049
:101A800070BD70B516460D4604461CE03246294628
:101A90002046FFF7F1FE002801D0012070BD681C30
:101AA00011D0002D04D0FEF73BFE801BA8420AD9BE
:101AB000616C202001436164403460700020A0709C
:101AC0002070032070BD20688069C0438007DDD48A
:101AD000002070BD1FB5002269460A730A23012247
:101AE00003A96C460EC413460246D0210348FEF7F4
:101AF000C1FE6946087B04B010BD0000180000203C
:101B00007FB5164600256A461C4615732A463300E3
:101B100000F07CFB09131306080A0C0E10121300C8
:101B200003220AE0072208E00F2206E01F2204E059
:101B30003F2202E07F2200E0FF228A4095438C4052
:101B40002C4369460C730A23012203A96E460EC674
:101B500013460246D0210248FEF73AFF7FBD00003F
:101B60001800002008B50848016B012211430163E9
:101B7000006B10400022009011460A20FFF786F803
:101B80000A20FFF779F808BD0010024008B50848A0
:101B9000C26A80210A43C262C26A0A400092C16AD4
:101BA00001221143C162C06A1040009008BD0000CC
:101BB0000010024010B516481449016015494160F3
:101BC000002181600161416181610122C161C260C6
:101BD0000162FEF7F5FD002803D045210EA000F0BC
:101BE00004FB00210A48FEF7A1FD002803D04C2188
:101BF00009A000F0FAFA00210548FEF7BCFD002814
:101C000003D0532104A000F0F0FA10BD00540040AE
:101C100018000020BB7C70002E2E2F5372632F699A
:101C200032632E630000000010B50D480B490160BF
:101C3000E1214902416000218160C160016181614F
:101C4000C1610C22016242614162FFF747FD002839
:101C500003D0442103A000F0C8FA10BD00440040A6
:101C6000E40000202E2E2F5372632F75736172745F
:101C70002E630000704700008307FF22DB0E9A40AE
:101C80008907090E994000280BDA0007000F083871
:101C9000830808489B001818C36993430B43C3612A
:101CA0007047830804489B001B181868904308433A
:101CB0001860704700ED00E000E400E070470000AD
:101CC00070B517490023CA681206120F18D18A6B23
:101CD000154CD500134A02D51268224009E08E6BDC
:101CE00001252D072E438E6312688E6B2240AE4372
:101CF0008E63A24204D103218903884200D10123CB
:101D00000A48016849084900194301600068C00792
:101D1000C00F984201D0012070BD002070BD0000AE
:101D20000010024000700040001800000020024037
:101D3000704710B5FEF758FFFFF7CCFC10BD000050
:101D400010B524489EB001680322D2029143C21408
:101D500089180160012000900520000401900220F4
:101D60000A90C0030B90032080040C90D0020D90C9
:101D70006846FFF75FFA002800D0FEE70F201890B2
:101D80000024032019901A941B9401211C9418A874
:101D9000FFF73AF9002800D0FEE70A200E901294CF
:101DA00014940EA8FFF75AF8002800D0FEE7FFF7BA
:101DB000DFF97D21C900FEF79BF9FFF773FC0420D2
:101DC000FFF762FC00221146501EFEF75FFF1EB0B7
:101DD00010BD0000007000401048016882151143DA
:101DE0000160C1680E4A1140C16001680D4A11408E
:101DF00001608168490849008160016801229204FC
:101E000091430160C168FD2212049143C160002129
:101E100001610549C003886070470000001002405E
:101E20000C40FF88F6FFF6FE00ED00E010B5818C57
:101E3000C90707D001684A6801235B049A43836A93
:101E40001A434A60818C890707D501684A680123D3
:101E50001B049A43C36A1A434A60818C490707D519
:101E600001684A6801239B049A43036B1A434A6042
:101E7000818C090707D501684A680123DB039A436F
:101E8000436B1A434A60818CC90607D50268916882
:101E900001231B039943836B19439160818C89064D
:101EA00007D501688A6801235B039A43C36B1A4311
:101EB0008A60818C490612D503685A680121090598
:101EC000046C8A4322435A60026C8A4207D102683A
:101ED000516803235B059943436C19435160818C1E
:101EE000090607D501684A680123DB04806C9A4320
:101EF00002434A6010BD0000F8B500260446C666DD
:101F0000FEF70EFC054620680068124F000709D551
:101F100001212B46002249052046009700F034F9A4
:101F200000280DD12068006840070BD501212B4601
:101F3000002289052046009700F026F9002801D0EC
:101F40000320F8BD202060346072A0722672002049
:101F5000F8BD0000FFFFFF01FEB504460168806880
:101F60002269E36910436269102700261A4310436F
:101F70000A683546784B1A4002430A602068416877
:101F8000032212039143E26811434160734A2168BE
:101F9000A069914201D0226A10438A680B231B0278
:101FA0009A4302438A606E4A20686E4990420CD17F
:101FB000C8688007800F06D0012843D002283FD090
:101FC000032826D124E0012723E0674A90420AD162
:101FD000C8680C21084031D0042833D008282FD0FD
:101FE0000C2816D114E0614A904227D0604A9042F2
:101FF00024D05A4A90420CD1C96803208002014083
:102000001CD01015091A1DD0091A19D0814200D10F
:1020100008270220FEF73EFE0190504B51492268EE
:102020004039D81300929A4235D1002F0CD0022F9C
:102030000DD0042F12D0082F1CD113E00027E8E7A1
:102040000227E6E70427E4E7FFF798F808E00868C6
:10205000C00601D5474805E0474803E0FFF7AEF862
:10206000002873D0626851005118814202D81103D0
:10207000814201D2012569E0010E060250080023C9
:1020800030185941FEF74AF8032109023B4A411A28
:10209000914259D9EEE7E26982422DD13B0000F02E
:1020A000B5F80906080B24192424241F24000198DC
:1020B00012E0FFF773F80FE008686168C00602D508
:1020C00048082F4A01E02F4A48088018FEF710F808
:1020D00086B20BE0FFF772F8616840004A08F4E747
:1020E0006168012248081204EFE70125310909015E
:1020F0003007400F084327E03B0000F087F809074E
:102100000A0D061D060606290600B3E7FFF736F896
:1021100014E0FFF743F811E008686168C00602D5D3
:102120004A08144801E014484A081018FDF7E0FF77
:1021300081B20098C16009E0FFF740F861684A0881
:102140008018FDF7D5FF80B22168C8602846FEBD23
:1021500061684A08E9E70000F369FFEF00480040C2
:10216000003801404010024000440040004C004054
:102170000050004000093D000024F400FFFC0F0067
:1021800000127A000048E801FFB581B017460E46FC
:1021900004460A9D1DE0681C1BD0002D05D0FEF7EB
:1021A000BFFA0499401AA84213D920680168FF2297
:1021B000A13291430160206881684908490081602B
:1021C000202060346072A07200202072032005B0CD
:1021D000F0BD2068C1693046884304D00020B84271
:1021E000D9D00020F3E70120F9E7FEE70FB410B5DE
:1021F00003A9044B044A029800F024F810BC08BC60
:1022000004B01847B92600081400002030B4744602
:10221000641E2578641CAB4200D21D46635D5B00E2
:10222000E31830BC184702E008C8121F08C1002A92
:10223000FAD170477047002001E001C1121F002A47
:10224000FBD17047FFB591B00F460546002606E06A
:1022500025280AD0149A139990476D1C761C28786B
:102260000028F5D1304615B0F0BD002400940121BE
:10227000F34A029400E004436D1C2B780846203B8F
:1022800098401042F7D128782A280ED002212878C9
:102290000246303A092A15D8009A0A235A43303A9E
:1022A00080180C436D1C0090F1E701CF00900028CE
:1022B00005DA0120400304430098404200900220C8
:1022C00004436D1C28782E2815D104200443687817
:1022D0006D1C2A280AD101CF6D1C02900BE00299D7
:1022E0000A225143303940186D1C0290287801466B
:1022F00030390929F3D928786C2810D006DC4C280D
:102300001AD068280ED06A2817D104E0742813D098
:102310007A2812D110E00120400504430CE001218D
:10232000090501E0032109050C436978814203D1C5
:102330000120000524186D1C6D1C287803906E2860
:102340001ED00CDC632831D004DC00288AD0582849
:1023500011D1B2E064287BD069280CD178E07328D1
:102360002DD004DC6F2870D0702804D1A7E0752828
:102370006CD078286BD0149A13999047761C62E041
:102380006002400F022807D003280AD004283868CA
:102390000AD006603F1D56E03868F11706604160BC
:1023A000F8E738680680F5E70670F3E7387869469D
:1023B00008740020487404A80390012003E03868E2
:1023C00003900020C0433F1D61070FD5002101E0AD
:1023D0000199491C029A0191914213DA8142F7DB7B
:1023E000019A0399895C0029F2D10BE0002101E0F8
:1023F0000199491C01918142FADB019A0399895C98
:102400000029F5D101990098139A401A00902146AD
:10241000149B00F03BF901998019461807E00398D6
:1024200003990078491C0391149A139990470198D5
:10243000401E0190401CF2D12146149B139A009833
:1024400000F014F986196D1C09E741E033E034E02F
:102450000A200021049005916002410F022905D055
:1024600001CFC2179446032905D007E0FF1DFF08DE
:10247000FF0003CF06E000B2C2179446042902D140
:1024800040B2C1178C4600226146944506DA0A46DE
:102490000021404291418C462D2102E0210504D5C6
:1024A0002B216A461176012103E0E10701D02021AA
:1024B000F7E7019154E00A200BE0102009E010201A
:1024C000049000210420044308200591029003E0B9
:1024D00008200021059104906002410F022905D0D7
:1024E00001CF00229446032906D006E0FF1DFF0815
:1024F000FF0003CF8C4603E080B2042900D1C0B2B4
:102500000021019121072BD50399702906D0049A47
:102510001021059B4A401A4305D00EE040216A462F
:102520001176012108E06146014306D030216A4658
:1025300011760399517602210191049A0821059B95
:102540004A401A430CD16146014301D1610707D5C6
:1025500030216A461176012101910299491E0291AA
:102560000399582904D037A103910FA90F910DE0C9
:1025700039A1F9E76146059B049AFDF7CFFD039B5E
:102580008C469B5C0F9A521E0F921370614601435A
:10259000F0D10F9807A9081A20300390600704D5DE
:1025A000012000048443029801E001200290039975
:1025B000884201DD401A00E0002041180290019895
:1025C00009180098401A0090E00306D42146149B95
:1025D000139A009800F05AF886190020049008E039
:1025E00006A9085C149A139990470498401C761C1D
:1025F000049001998842F3DBE0030CD52146149B3B
:10260000139A009800F042F8861904E0149A3020DA
:1026100013999047761C0299481E02900029F5DC18
:1026200008E00F980F990078491C0F91149A13999C
:102630009047761C0399481E03900029F1DCFBE6C5
:102640000928010030313233343536373839616288
:10265000636465660000000030313233343536374C
:10266000383941424344454600000000F8B504466D
:1026700000251E461746880404D405E0394620206C
:10268000B0476D1C641EF9D52846F8BDFFB5044659
:10269000002581B01E46C80301D5302700E0202761
:1026A000880404D505E038460399B0476D1C641EC4
:1026B000F9D5284605B0F0BD38B504466846047023
:1026C0000223012269460248FFF760F8204638BD20
:1026D000E400002010B57520FFF7FCF9014614A0B6
:1026E000FFF784FD17A0FFF781FD1DA0FFF77EFD1A
:1026F0006420FDF747FF0023012206216B20FFF72E
:10270000FFF90A20FDF73EFF0123032202216B207F
:10271000FFF7F6F90023022204211B20FFF7F0F94E
:102720000023022204211C20FFF7EAF910BD00005B
:1027300057686F20616D2049203D20307825303268
:10274000580D0A004D50553630353020496E6974A9
:1027500069616C697A652E2E2E2E2E200D0A0000DE
:102760002D2D2D2D2D2D2D2D2D2D2D2D2D2D2D2D99
:102770002D2D2D2D2D2D2D2D0D0A0000FEF73CFAAF
:10278000FFF7DEFAFFF702FAFFF7ECF9FFF712FAAC
:10279000FFF74AFAFFF79EFF7D250E4CED0000F093
:1027A0006DF8042302220021E35EA25E615E0AA0AE
:1027B000FFF71CFD0A2308220621E35EA25E615E8C
:1027C00012A0FFF713FD1EA0FFF710FD2846FDF72E
:1027D000D9FEE4E700000020416363656C5F582088
:1027E0003D20253664202F20416363656C5F5920AE
:1027F0003D20253664202F20416363656C5F5A209D
:102800003D20253664200D0A000000004779726FD4
:102810005F5820203D20253664202F204779726F95
:102820005F5920203D20253664202F204779726F84
:102830005F5A20203D20253664200D0A000000004C
:102840002D2D2D2D2D2D2D2D2D2D2D2D2D2D2D2DB8
:102850002D2D2D2D2D2D2D2D2D2D2D2D2D2D2D2DA8
:102860002D2D2D2D2D2D2D2D2D2D2D2D2D2D2D2D98
:102870002D2D2D2D2D2D2D2D0D0A000070B53B2059
:10288000FFF728F905023C20FFF724F90543184C0F
:102890003D202580FFF71EF905023E20FFF71AF9BB
:1028A000054365803F20FFF715F905024020FFF73B
:1028B00011F90543A5804320FFF70CF905024420D8
:1028C000FFF708F90543E5804520FFF703F9050206
:1028D0004620FFF7FFF8054325814720FFF7FAF868
:1028E00005024820FFF7F6F80543658170BD00003A
:1028F00000000020000000000000000001020304AE
:1029000006070809030406080C1018203000000010
:102910000001020304000000382900080000002024
:102920001800000026220008502900081800002086
:1029300040050000362200080000000000000000F2
:10294000000000000000000080841E000000000065
:04000005080000C12E
:00000001FF
